:100000000C9471000C9499000C9499000C94990034
:100010000C9499000C9499000C9499000C949900FC
:100020000C9499000C9499000C9499000C94E00B9A
:100030000C9499000C9499000C9499000C949900DC
:100040000C94960B0C9499000C94640B0C943E0B3E
:100050000C9499000C9499000C9499000C949900BC
:100060000C9499000C94990005A84CCDB2D44EB9CB
:100070003836A9020C50B9918688083CA6AAAA2A4B
:10008000BE000000803F00000000240027002A007E
:1000900000000000250028002B00000000002300C5
:1000A00026002900040404040404040402020202D9
:1000B000020203030303030301020408102040802B
:1000C00001020408102001020408102000000008AA
:1000D000000201000003040700000000000000000F
:1000E000B70C11241FBECFEFD8E0DEBFCDBF13E0A9
:1000F000A0E0B1E0EAEFF1E302C005900D92A03775
:10010000B107D9F724E0A0E7B3E001C01D92AC36F7
:10011000B207E1F710E0C1E7D0E004C02197FE018B
:100120000E94F518C037D107C9F70E94EF0C0C9454
:10013000FB180C940000AF92BF92CF92DF92EF9227
:10014000FF920F931F93CF93DF936C017B018B0181
:10015000040F151FEB015E01AE18BF08C017D107D1
:1001600059F06991D601ED91FC910190F081E02D5B
:10017000C6010995892B79F7C501DF91CF911F91B0
:100180000F91FF90EF90DF90CF90BF90AF900895C8
:10019000FC01538D448D252F30E0842F90E0821B8D
:1001A000930B541710F0CF96089501970895FC0112
:1001B000918D828D981761F0A28DAE0FBF2FB11D6A
:1001C0005D968C91928D9F5F9F73928F90E00895C2
:1001D0008FEF9FEF0895FC01918D828D981731F07C
:1001E000828DE80FF11D858D90E008958FEF9FEFD0
:1001F0000895FC01918D228D892F90E0805C9F4FA6
:10020000821B91098F739927089586EC93E00E94D1
:10021000F90021E0892B09F420E0822F089580E085
:1002200090E0892B29F00E94050181110C940000B7
:100230000895FC01A48DA80FB92FB11DA35ABF4F7B
:100240002C91848D90E001968F739927848FA689D5
:10025000B7892C93A089B1898C91837080648C9329
:10026000938D848D981306C00288F389E02D8081D8
:100270008F7D80830895EF92FF920F931F93CF930A
:10028000DF93EC0181E0888F9B8D8C8D98131AC0D1
:10029000E889F989808185FF15C09FB7F894EE89B8
:1002A000FF896083E889F989808183708064808315
:1002B0009FBF81E090E0DF91CF911F910F91FF9060
:1002C000EF900895F62E0B8D10E00F5F1F4F0F7308
:1002D0001127E02E8C8D8E110CC00FB607FCFACFC3
:1002E000E889F989808185FFF5CFCE010E94190147
:1002F000F1CFEB8DEC0FFD2FF11DE35AFF4FF08294
:100300009FB7F8940B8FEA89FB8980818062CFCFF9
:10031000CF93DF93EC01888D8823B9F0AA89BB893C
:10032000E889F9898C9185FD03C0808186FD0DC027
:100330000FB607FCF7CF8C9185FFF2CF808185FF48
:10034000EDCFCE010E941901E9CFDF91CF91089541
:10035000833081F028F4813099F08230A9F008953B
:100360008730A9F08830C9F08430B1F480918000E2
:100370008F7D03C0809180008F77809380000895E7
:1003800084B58F7784BD089584B58F7DFBCF809130
:10039000B0008F778093B00008958091B0008F7D7A
:1003A000F9CFCF93DF93282F30E0F901E453FF4FCB
:1003B0008491F901E854FF4FD491F901EC55FF4FB6
:1003C000C491CC23A1F081110E94A801EC2FF0E090
:1003D000EE0FFF1FE656FF4FA591B491EC91ED2370
:1003E00081E090E009F480E0DF91CF91089580E012
:1003F00090E0FACF1F93CF93DF93282F30E0F901DD
:10040000E453FF4F8491F901E854FF4FD491F9016F
:10041000EC55FF4FC491CC23A9F0162F81110E94F7
:10042000A801EC2FF0E0EE0FFF1FE057FF4FA59162
:10043000B4918FB7F894EC91111108C0D095DE23D8
:10044000DC938FBFDF91CF911F910895DE2BF8CF02
:10045000CF93DF9390E0FC01E854FF4F24918C553B
:100460009F4FFC0184918823C9F090E0880F991F69
:10047000FC01EA57FF4FA591B491FC01E057FF4FF3
:10048000C591D49161110DC09FB7F8948C912095BE
:1004900082238C938881282328839FBFDF91CF916B
:1004A0000895623051F49FB7F8943C91822F809563
:1004B00083238C93E8812E2BEFCF8FB7F894EC91A8
:1004C0002E2B2C938FBFEACF1F93CF93DF93182F40
:1004D000EB0161E00E942802209739F460E0812F4F
:1004E000DF91CF911F910C94FA01CF3FD10511F408
:1004F00061E0F5CFE12FF0E0E453FF4FE491E3300A
:1005000031F140F4E130B1F0E230E1F0C038D10532
:100510007CF7E4CFE73029F1E83059F1E430B1F766
:1005200080918000806280938000D0938B00C09384
:100530008A0004C084B5806884BDC7BDDF91CF91B7
:100540001F91089584B5806284BDC8BDF7CF8091A6
:100550008000806880938000D0938900C0938800D9
:10056000EDCF8091B00080688093B000C093B3005D
:10057000E5CF8091B00080628093B000C093B4005A
:10058000DDCF8E3008F08E508770806480937C00C1
:1005900080917A00806480937A0080917A0086FD51
:1005A000FCCF809178009091790008953FB7F8943E
:1005B00080919B0390919C03A0919D03B0919E0319
:1005C00026B5A89B05C02F3F19F00196A11DB11DAE
:1005D0003FBFBA2FA92F982F8827BC01CD01620FEA
:1005E000711D811D911D42E0660F771F881F991FA5
:1005F0004A95D1F708958F929F92AF92BF92CF9272
:10060000DF92EF92FF926B017C010E94D6024B01B8
:100610005C01C114D104E104F104B9F00E94D602D6
:10062000681979098A099B09683E7340810591051B
:1006300080F321E0C21AD108E108F10888EE880EA3
:1006400083E0981EA11CB11CE4CFFF90EF90DF90D7
:10065000CF90BF90AF909F908F9008958F929F9270
:10066000AF92BF92CF92DF92EF92FF92FC01828114
:1006700058E5C52E52E0D52EC81AD10887FDD3946F
:10068000CC0CDD1CCC0CDD1C0D2C000CEE08FF0886
:10069000818178E8872E912C881A910887FD9394A0
:1006A000880C991C880C991C092C000CAA08BB0802
:1006B00080818F3FD1F190E0FC01EE0FFF1FE80F2A
:1006C000F91FEE58FC4F8181928133E0880F991F0A
:1006D0003A95E1F7B0E0A0E044E0B595A79597958D
:1006E00087954A95D1F702969C012F5F3F4F032EC5
:1006F000000C440B550B281939094A095B09A4EB76
:10070000B0E00E944A15A7019601281939094A0943
:100710005B090E942B15C901FF90EF90DF90CF90ED
:10072000BF90AF909F908F90089590E080E0DCCFD5
:10073000CF92DF92EF92FF92CF93DF93EC01603282
:1007400082E07807CCF5653B710514F064EB70E04E
:10075000898128E830E0281B310987FD3395220F75
:10076000331F220F331F6901330FEE08FF088A8100
:1007700028E532E0281B310987FD3395220F331F0E
:10078000220F331F032E000C440B550B2C193D096F
:100790004E095F09DB0177FF02C0B0E0A0E00E94D4
:1007A000551524EB30E040E050E00E942B15C20EBE
:1007B000D31EE41EF51EB601E881EC3070F52981E8
:1007C00088E890E0821B910927FD9395880F991F77
:1007D000880F991F681779077CF02A8188E592E0D5
:1007E000821B910927FD9395880F991F880F991FE8
:1007F000681779070CF4CB010297880F991F4FB740
:10080000F8942E2F30E0F901EE0FFF1FE20FF31FD7
:10081000EE58FC4F928381834FBFDF91CF91FF90C1
:10082000EF90DF90CF9008951F93CF93DF93EC016B
:10083000162F88818C3008F04EC061E0812F0E9415
:1008400028028881282F30E0F901EE0FFF1FE20F08
:10085000F31FEE58FC4F1F736081607C612B608337
:1008600019821A822CE0622F0E94BA18829FB0016E
:10087000112430E020E0AB01420F531FFA01EE0FCC
:10088000FF1FE40FF51FEE58FC4F908196FD16C038
:100890002F5F3F4F2C30310571F781110FC010923F
:1008A000800082E080938100109285001092840085
:1008B000B19A80916F00826080936F00E8818E2FE3
:1008C00090E0FC01EE0FFF1FE80FF91FEE58FC4F00
:1008D0008081806480838881DF91CF911F9108950A
:1008E00089E694E00E942E038A359105ACF480E0FD
:1008F00090E0A0EAB0E48093000190930101A093FE
:100900000201B09303016091000170910101809197
:10091000020190910301089589E694E00E942E035C
:100920008A3591053CF089E694E00E942E038436D6
:100930009105ECF289E694E00E942E03853691053C
:1009400014F380E090E0A0E1B1E4D5CFCF93DF9342
:10095000D82FC43169F08D2F0E94D101892B61F409
:1009600061E070E080E090E00E94FB02CF5FF1CF99
:1009700081E0DF91CF91089580E0FBCF82E10E947A
:10098000C10228EE33E0DC010E94DA182FEF33E0D9
:1009900040E050E00E942B15CA01B9010E94AF1639
:1009A0000E947716CB010895CF92DF92EF92FF92CB
:1009B0006B017C0160E082E00E94FA0160E084E06B
:1009C0000E94FA0160E087E00E94FA0160E088E09E
:1009D0000E94FA0170E060E083E00E94640270E02F
:1009E00060E085E00E94640220E030E04AE754E4E1
:1009F000C701B6010E9405180E947E16FF90EF9075
:100A0000DF90CF900C94FB02FC0101900020E9F7ED
:100A10003197AF01481B590BBC0186EC93E00C9455
:100A20009B008EE191E00C9404058F929F92AF920F
:100A3000BF920F931F93CF93DF93CDB7DEB7A197EC
:100A40000FB6F894DEBF0FBECDBF19A2423008F436
:100A50004AE08E010F5D1F4F842E912CB12CA12CEA
:100A6000A50194010E945D15E62FB901CA01EA3083
:100A7000F4F4E05DD801EE938D01232B242B252B7C
:100A800079F790E080E0109719F0CD010E940405FD
:100A9000A1960FB6F894DEBF0FBECDBFDF91CF9108
:100AA0001F910F91BF90AF909F908F900895E95C38
:100AB000E1CFCF92DF92EF92FF92CF93DF936B0162
:100AC0007C016DE286EC93E00E943B01EC0166271D
:100AD0007727CB016C197D098E099F094AE00E9496
:100AE00015058C0F9D1FDF91CF91FF90EF90DF9048
:100AF000CF900895CF93DF930E940405EC010E94EC
:100B000011058C0F9D1FDF91CF9108950C94040562
:100B10004F925F926F927F928F929F92AF92BF920D
:100B2000CF92DF92EF92FF920F931F93CF936B01BF
:100B30007C01742EAC019B010E947A18882399F0E5
:100B400081E291E0CF911F910F91FF90EF90DF90A4
:100B5000CF90BF90AF909F908F907F906F905F905D
:100B60004F900C94040546015701E894B7F82FEF15
:100B70003FEF4FE75FE7C501B4010E947A1881118A
:100B80000DC02FEF3FEF4FE75FE7C501B4010E94B3
:100B9000FB1518161CF485E291E0D4CF2FEF3FEF40
:100BA0004FE75FE4C701B6010E94001818161CF455
:100BB00089E291E0C7CF2FEF3FEF4FE75FECC7012E
:100BC000B6010E94FB1587FDF3CF20E030E0A901BC
:100BD000C701B6010E94FB1510E000E087FF0AC0C4
:100BE0006DE286EC93E00E943B018C01F7FAF094F1
:100BF000F7F8F094C0E060E070E080E09FE37C16DE
:100C000041F020E030E040E251E40E940516CF5F61
:100C1000F6CFA70196010E948F152B013C010E947F
:100C20007E164B015C014AE00E9415057C01E00E36
:100C3000F11ECC23C1F1C501B4010E94AD169B0188
:100C4000AC01C301B2010E948E154B015C016EE242
:100C500086EC93E00E943B01E80EF91EC15018F1AA
:100C600020E030E040E251E4C501B4010E940518E3
:100C70002B013C010E947E164B01B12CA12C4AE0B5
:100C8000C501B4010E941505E80EF91EC501B401A5
:100C90000E94AD169B01AC01C301B2010E948E15EA
:100CA0004B015C01DBCFC701CF911F910F91FF90EA
:100CB000EF90DF90CF90BF90AF909F908F907F90FC
:100CC0006F905F904F900895CF93DF9342E00E9422
:100CD0008805EC010E9411058C0F9D1FDF91CF91BB
:100CE0000895CF93DF93BC01990F880B990B97FF61
:100CF0000AC00E945905EC010E9411058C0F9D1F2E
:100D0000DF91CF9108954AE00E941505F4CFBC0110
:100D1000990F880B990B97FD0C9459054AE00C9498
:100D200015058F929F92AF92BF92CF92DF92EF9272
:100D3000FF924B015C0180910A0190910B01039796
:100D4000ECF46AE077ED83E29CE30E94D4048091A6
:100D50000A0190910B0103970CF09DC06AE077EDBA
:100D600083E29CE30E94650780910A0190910B0148
:100D7000019690930B0180930A01E9CF20E030E0C7
:100D80004AE754E4C5010E9405180E9477167B01CA
:100D90001E141F0414F561E083E00E94FA0161E073
:100DA00085E00E94FA0160E082E00E94FA0161E0C1
:100DB00084E00E94FA0161E087E00E94FA0160E0AD
:100DC00088E00E94FA0161E070E080E090E00E941B
:100DD000FB0281E0E81AF108DBCF20E030E044EBD1
:100DE00053E4C501B4010E9405182091BE0330915F
:100DF000BF034091C0035091C1030E94051620918A
:100E0000C2033091C3034091C4035091C5030E94B3
:100E10008F156B017C0120E030E0A9010E940018D1
:100E200020E030E044EB53E487FF42C020E030E0B4
:100E3000A901C701B6010E94FB1587FD35C0C0920C
:100E4000C203D092C303E092C403F092C5038DE2C3
:100E500091E00E947A056091C2037091C303809172
:100E6000C4039091C5030E9464066091C20370910F
:100E7000C3038091C4039091C5030E9477167093B9
:100E8000B9036093B8031092BA031092BB03109297
:100E9000BC031092BD03FF90EF90DF90CF90BF9006
:100EA000AF909F908F90089520E030E044EB53EC9A
:100EB000C701B6010E94F5166093C2037093C30385
:100EC0008093C4039093C503C2CF8F929F92AF9239
:100ED000BF92CF92DF92EF92FF924B015C01809123
:100EE000080190910901039754F56AE077ED83E2D8
:100EF0009CE30E94D404809108019091090103971A
:100F000084F46AE077ED83E29CE30E94910680918D
:100F100008019091090101969093090180930801BD
:100F2000EACF6AE077ED83E29CE3FF90EF90DF90F9
:100F3000CF90BF90AF909F908F900C94D40420E0FE
:100F400030E04AE754E4C5010E9405180E94771674
:100F50007B011E141F0414F561E083E00E94FA0176
:100F600061E085E00E94FA0161E082E00E94FA01FE
:100F700060E084E00E94FA0160E087E00E94FA01EC
:100F800061E088E00E94FA0161E070E080E090E0BA
:100F90000E94FB0281E0E81AF108DBCF20E030E09C
:100FA00044EB53E4C501B4010E9405182091BE032F
:100FB0003091BF034091C0035091C1030E940516B8
:100FC0009B01AC016091C2037091C3038091C40383
:100FD0009091C5030E948E156B017C0120E030E0EA
:100FE000A9010E94001820E030E044EB53E487FFA1
:100FF00042C020E030E0A901C701B6010E94FB1504
:1010000087FD35C0C092C203D092C303E092C403EF
:10101000F092C50386E491E00E947A056091C203D4
:101020007091C3038091C4039091C5030E9464062C
:101030006091C2037091C3038091C4039091C50372
:101040000E9477167093B9036093B8031092BA03A5
:101050001092BB031092BC031092BD03FF90EF905F
:10106000DF90CF90BF90AF909F908F90089520E039
:1010700030E044EB53ECC701B6010E94F5166093D3
:10108000C2037093C3038093C4039093C503C2CF7C
:101090008F929F92AF92BF92CF92DF92EF92FF9288
:1010A000CF934B015C01C42F2091BE033091BF034D
:1010B0004091C0035091C1030E94051820E030E028
:1010C00044EB53E40E9405166B017C018FE591E02F
:1010D0000E9486050E94BE040E94870683E791E075
:1010E0000E94860542E0C701B6010E94880582E899
:1010F00091E00E94860542E0C501B4010E94880586
:1011000084E991E00E947A05C13069F4C701B60113
:10111000CF91FF90EF90DF90CF90BF90AF909F90D6
:101120008F900C949106CF3F69F4C701B601CF911F
:10113000FF90EF90DF90CF90BF90AF909F908F90F7
:101140000C946507CF91FF90EF90DF90CF90BF9008
:10115000AF909F908F9008958F929F92AF92BF9281
:10116000CF92DF92EF92FF92CF93DF936B017C01DE
:101170008091060190910701079734F5809106014F
:1011800090910701079784F46AE077ED83E29CE38E
:101190000E94B809809106019091070101969093F1
:1011A000070180930601EACF6AE077ED83E29CE3D2
:1011B000DF91CF91FF90EF90DF90CF90BF90AF90F5
:1011C0009F908F900C94D40420E030E04AE754E4E0
:1011D000C7010E9405180E947716EB011C161D0618
:1011E00004F561E083E00E94FA0161E085E00E947D
:1011F000FA0160E082E00E94FA0161E084E00E946E
:10120000FA0160E087E00E94FA0161E088E00E9454
:10121000FA0161E070E080E090E00E94FB0221971B
:10122000DDCF0E94BE04EC0123E333E343E35FE33D
:10123000C701B6010E9405186B017C01BE01DD0FDC
:10124000880B990B0E94AF1620E030E04AE754E487
:101250000E9405169B01AC01C701B6010E9405164C
:101260006B017C01C092BA03D092BB03E092BC0335
:10127000F092BD036091B8037091B903072E000C82
:10128000880B990B0E94AF1625E33AEF4EE85CE31A
:101290000E9405184B015C010E9400169B01AC01E5
:1012A000C701B6010E9405189B01AC016091B4030F
:1012B0007091B5038091B6039091B7030E948F158A
:1012C0006093B4037093B5038093B6039093B70310
:1012D000C501B4010E9472189B01AC01C701B6019F
:1012E0000E9405189B01AC016091B0037091B1039D
:1012F0008091B2039091B3030E948F156093B00365
:101300007093B1038093B2039093B3038DE991E09E
:101310000E9486056091B4037091B5038091B60375
:101320009091B7030E9464068EEA91E00E948605C0
:101330006091B0037091B1038091B2039091B303B7
:101340000E9464068FEB91E00E9486058091B803AD
:101350009091B9030E947106DF91CF91FF90EF90B9
:10136000DF90CF90BF90AF909F908F900C9411051D
:101370008F929F92AF92BF92CF92DF92EF92FF92A5
:10138000CF93DF936B017C01809104019091050163
:10139000039734F58091040190910501039784F43B
:1013A0006AE077ED83E29CE30E94AC08809104013F
:1013B0009091050101969093050180930401EACF75
:1013C0006AE077ED83E29CE3DF91CF91FF90EF90AD
:1013D000DF90CF90BF90AF909F908F900C94D404EB
:1013E00020E030E04AE754E4C7010E9405180E945B
:1013F0007716EB011C161D0604F561E083E00E94E0
:10140000FA0161E085E00E94FA0161E082E00E9459
:10141000FA0160E084E00E94FA0161E087E00E9446
:10142000FA0160E088E00E94FA0161E070E080E08B
:1014300090E00E94FB022197DDCF0E94BE04EC01E8
:1014400023E333E343E35FE3C701B6010E940518DA
:101450006B017C01BE01DD0F880B990B0E94AF165A
:1014600020E030E04AE754E40E9405169B01AC01FD
:10147000C701B6010E9405166B017C01C092BA0338
:10148000D092BB03E092BC03F092BD036091B8031D
:101490007091B903072E000C880B990B0E94AF16B0
:1014A00025E33AEF4EE85CE30E9405184B015C012E
:1014B0000E9400169B01AC01C701B6010E940518ED
:1014C0009B01AC016091B4037091B5038091B603A8
:1014D0009091B7030E948E156093B4037093B50387
:1014E0008093B6039093B703C501B4010E947218AC
:1014F0009B01AC01C701B6010E9405189B01AC011C
:101500006091B0037091B1038091B2039091B303E5
:101510000E948E156093B0037093B1038093B20361
:101520009093B3038DE991E00E9486056091B40326
:101530007091B5038091B6039091B7030E94640641
:101540008EEA91E00E9486056091B0037091B1032C
:101550008091B2039091B3030E9464068FEB91E0F7
:101560000E9486058091B8039091B9030E9471068C
:10157000DF91CF91FF90EF90DF90CF90BF90AF9031
:101580009F908F900C941105EF92FF920F931F93F1
:10159000CF93DF937C018B0180910601909107012D
:1015A000079714F58091060190910701079784F43D
:1015B0006AE077ED83E29CE30E94B809809106011E
:1015C0009091070101969093070180930601EACF5D
:1015D0006AE077ED83E29CE3DF91CF911F910F9159
:1015E000FF90EF900C94D404C4E6D0E0B70183E000
:1015F0000E946402B80185E00E94640261E082E01A
:101600000E94FA0160E084E00E94FA0161E087E054
:101610000E94FA0160E088E00E94FA0161E070E057
:1016200080E090E00E94FB02219701F7DF91CF91CB
:101630001F910F91FF90EF900895CF92DF92EF925C
:10164000FF92682F70E090E080E00E94AF1625E3E3
:101650003AEF4EE85CE30E9405180E9472186B0195
:101660007C010E9470049B01AC01C701B6010E947D
:101670000518FF90EF90DF90CF9008951F920F9282
:101680000FB60F9211242F933F934F935F936F9355
:101690007F938F939F93AF93BF93EF93FF9386ECCA
:1016A00093E00E941901FF91EF91BF91AF919F913B
:1016B0008F917F916F915F914F913F912F910F90FB
:1016C0000FBE0F901F9018951F920F920FB60F929A
:1016D00011242F938F939F93EF93FF93E091D60361
:1016E000F091D7038081E091DC03F091DD0382FD6E
:1016F0001BC090818091DF038F5F8F732091E00387
:10170000821741F0E091DF03F0E0EA53FC4F958F40
:101710008093DF03FF91EF919F918F912F910F9015
:101720000FBE0F901F9018958081F4CF1F920F92DB
:101730000FB60F9211242F933F938F939F93AF93E4
:10174000BF938091970390919803A0919903B091D2
:101750009A033091960323E0230F2D3758F5019615
:10176000A11DB11D20939603809397039093980336
:10177000A0939903B0939A0380919B0390919C034B
:10178000A0919D03B0919E030196A11DB11D809370
:101790009B0390939C03A0939D03B0939E03BF91E2
:1017A000AF919F918F913F912F910F900FBE0F900E
:1017B0001F90189526E8230F0296A11DB11DD2CFC8
:1017C0001F920F920FB60F9211242F933F934F93B6
:1017D0005F936F937F938F939F93AF93BF93CF93B9
:1017E000DF93EF93FF9380917003C0917103D0E07A
:1017F00087FF24C0109285001092840080917003AE
:101800008F5F8093700380917003082E000C990BFA
:101810008C179D0724F4809170038C30C4F1809163
:10182000840090918500049680349C4908F47AC025
:101830008091840090918500049676C08091700319
:10184000082E000C990B8C179D07C4F6E0917003CD
:101850008E2FEE0F990BFC01EE0FFF1FE80FF91F03
:10186000EE58FC4F808186FFC9CFE09170038E2F28
:10187000EE0F990BFC01EE0FFF1FE80FF91FEE585A
:10188000FC4F808160E08F730E94FA01B7CF2091F6
:10189000840030918500E09170038E2FEE0F990B3C
:1018A000FC01EE0FFF1FE80FF91FEE58FC4F81817E
:1018B0009281820F931F9093890080938800E0911A
:1018C00070038E2FEE0F990BFC01EE0FFF1FE80F38
:1018D000F91FEE58FC4F808186FF11C0E091700324
:1018E0008E2FEE0F990BFC01EE0FFF1FE80FF91F73
:1018F000EE58FC4F808161E08F730E94FA01FF91E6
:10190000EF91DF91CF91BF91AF919F918F917F9197
:101910006F915F914F913F912F910F900FBE0F905C
:101920001F90189580E49CE990938900809388002B
:101930008FEF80937003E3CFFC01909171039C3093
:1019400098F481E0890F809371039083892F90E050
:10195000FC01EE0FFF1FE80FF91FEE58FC4F88EB5C
:101960009BE09283818308958FEF80830895E6EC56
:10197000F3E01382128288EE93E0A0E0B0E084836B
:101980009583A683B78380E191E09183808385EC82
:1019900090E09587848784EC90E09787868780EC39
:1019A00090E0918B808B81EC90E0938B828B82EC2A
:1019B00090E0958B848B86EC90E0978B868B118ED4
:1019C000128E138E148E89E694E00E949C0C86E69B
:1019D00094E00E949C0C83E694E00C949C0CCF93C2
:1019E000DF93CDB7DEB72E970FB6F894DEBF0FBEEC
:1019F000CDBF789484B5826084BD84B5816084BD98
:101A000085B5826085BD85B5816085BD80916E009C
:101A1000816080936E0010928100809181008260CD
:101A2000809381008091810081608093810080910A
:101A300080008160809380008091B10084608093F9
:101A4000B1008091B00081608093B00080917A00F5
:101A5000846080937A0080917A00826080937A001B
:101A600080917A00816080937A0080917A0080680A
:101A700080937A001092C100E091D603F091D703D1
:101A800082E08083E091D203F091D3031082E09151
:101A9000D403F091D5038FEC80831092DE03E091A4
:101AA000DA03F091DB0386E08083E091D803F091C4
:101AB000D903808180618083E091D803F091D903BC
:101AC000808188608083E091D803F091D903808180
:101AD00080688083E091D803F091D90380818F7D65
:101AE000808361E082E00E94280261E087E00E943A
:101AF000280261E084E00E94280261E088E00E9400
:101B0000280261E083E00E94280261E085E00E94F3
:101B1000280270E060E083E00E94640270E060E010
:101B200085E00E94640262E08BE00E94280262E08D
:101B30008DE00E94280262E08CE00E94280262E0B0
:101B400083E10E94280262E080E10E94280260E0B6
:101B500082E10E94280269E070E089E694E00E9438
:101B6000140466E070E086E694E00E9414046AE0E3
:101B700070E083E694E00E94140462E081E10E9438
:101B8000280289E694E00E942E038A35910509F423
:101B900003C16AE570E089E694E00E94980364EB73
:101BA00070E080E090E00E94FB0264EB70E086E66B
:101BB00094E00E94980364EB70E080E090E00E9463
:101BC000FB0264EB70E083E694E00E94980364EB10
:101BD00070E080E090E00E94FB021092C20310923D
:101BE000C3031092C4031092C5031092B003109265
:101BF000B1031092B2031092B3031092B403109287
:101C0000B5031092B6031092B7030E94BE04BC0144
:101C100088EE93E00E94C618072E000C880B990BE3
:101C20000E94AF1620E030E040E850E40E94051822
:101C30006093BE037093BF038093C0039093C1036E
:101C40008FE00E94C1027C019093AF038093AE03AA
:101C50008EE00E94C1028C019093AD038093AC038F
:101C6000843B914044F4CC24C394C701855B9140EC
:101C70008539910508F0C12C8C2D90E09093AB0331
:101C80008093AA030B3432E0130744F0BB24B394CF
:101C9000C701855B91408539910508F0B12C8B2DEA
:101CA00090E09093A9038093A80384EBE81681E069
:101CB000F80644F4AA24A394C801855B91408539B1
:101CC000910508F0A12C8A2D90E09093A7038093B2
:101CD000A6039BE4E91692E0F90644F08824839475
:101CE000C801855B91408539910508F0812C882DCC
:101CF00090E09093A5038093A403DC2CC11006C050
:101D0000DA2CA11003C0D82CB110DB2C8D2D90E063
:101D10009093A3038093A2038BE00E94D101582EDD
:101D20008093A1038DE00E94D101682E8093A003CF
:101D30008CE00E94D101782E80939F0383E10E9462
:101D4000D101552009F484C6662009F481C67720A4
:101D500009F47EC6DD2009F4DEC4CC2009F49AC360
:101D60008091060190910701079774F58091060113
:101D70009091070107970CF56AE077ED83E29CE309
:101D80000E94B809809106019091070101969093F5
:101D9000070180930601EACF86E694E00E942E03B5
:101DA000843B910509F0F5CE83E694E00E942E0372
:101DB000843B910509F0EDCE10CF6AE077ED83E228
:101DC0009CE30E94D404E3C0012E000C220B330BD1
:101DD000A9019801245B314041095109AFEFB3E0FB
:101DE0000E944A152CE43EEF4FEF5FEF0E942B1547
:101DF0002901890144E6E42EF12CB80183E00E9418
:101E00006402B80185E00E94640260E082E00E9402
:101E1000FA0161E084E00E94FA0160E087E00E943C
:101E2000FA0161E088E00E94FA0161E070E080E080
:101E300090E00E94FB0221E0E21AF108F1F60E9414
:101E4000BE04BC01990F880B990B0E94AF1620E0CD
:101E500030E04AE754E40E9405169B01AC0169E2B8
:101E60007CE58FE89DE30E9405166B017C01B201C1
:101E7000550C880B990B0E94AF1620E030EC4FE711
:101E800054E40E9405169B01AC01C701B6010E94F3
:101E900005186B017C01C092BA03D092BB03E0929B
:101EA000BC03F092BD036091B8037091B903072E93
:101EB000000C880B990B0E94AF1625E33AEF4EE811
:101EC0005CE30E9405182B013C010E9400169B0157
:101ED000AC01C701B6010E9405189B01AC016091DD
:101EE000B4037091B5038091B6039091B7030E943B
:101EF0008F156093B4037093B5038093B6039093EA
:101F0000B703C301B2010E9472189B01AC01C70163
:101F1000B6010E9405189B01AC016091B00370915D
:101F2000B1038091B2039091B3030E948F15609327
:101F3000B0037093B1038093B2039093B3038DE920
:101F400091E00E9486056091B4037091B503809181
:101F5000B6039091B7030E9464068EEA91E00E9456
:101F600086056091B0037091B1038091B2039091A6
:101F7000B3030E9464068FEB91E00E948605809176
:101F8000B8039091B9030E9471060E94110580E187
:101F90000E94D101892BA1F5C090C203D090C30348
:101FA000E090C403F090C50320E030E0A901C70130
:101FB000B6010E94FB15882319F120E030E0A90149
:101FC000C701B6010E94FB1587FFD7C384ED91E0DE
:101FD0000E9486056091C2037091C3038091C4037F
:101FE0009091C5030E9464066091C2037091C3037F
:101FF0008091C4039091C503905841E00E94480825
:1020000081E10E94D101892B09F037C20E9470043E
:102010002B013C0189E694E00E942E03882E89E67C
:1020200094E00E942E035C01232C9B822D852C833F
:102030003E853D83312C912C1D861E8689E694E0D9
:102040000E942E038D970CF44AC489E694E00E9406
:102050002E030E941D0B20E030E040EE50E40E9471
:10206000001887FDEFC383EE91E00E94860589E6A4
:1020700094E00E942E030E9487068AEF91E00E945E
:102080007A056AE570E068197109072E000C880B63
:10209000990B0E94AF1625E33AEF4EE85CE30E94ED
:1020A00005180E947218A30192010E940518362E8D
:1020B000972E8D879E8784E092E00E948605632D8F
:1020C000792D8D859E850E94640689E694E00E94A4
:1020D0002E038E8389E694E00E942E036AE570E069
:1020E000681B790B072E000C880B990B0E94AF160A
:1020F00025E33AEF4EE85CE30E9405180E9472184F
:102100006B017C010E9470049B01AC01C701B60108
:102110000E940518232D392D4D855E850E948E1550
:1021200069837A838C01C12CD12C760189E694E0F5
:102130000E942E0349978CF4232D392D4D855E8501
:1021400069817A81C8010E948E1520E030E040E864
:1021500050E40E94FB1587FF2EC089E694E00E94A0
:102160002E030E941D0B20E030E040EE50E40E9460
:10217000FB1587FF24C36AE570E08E81681B710937
:10218000072E000C880B990B0E94AF1625E33AEF3F
:102190004EE85CE30E9405180E947218A7019601A0
:1021A0000E940518232D392D4D855E850E948E15C0
:1021B00069837A838C0120E030E040E850E4698153
:1021C0007A81C8010E94001887FF3DC41E828FE2F9
:1021D00092E00E948605622D7B818C819D810E9408
:1021E000640689E694E00E942E038D9779F520E03D
:1021F00030E0A901632D792D8D859E850E94FB1508
:10220000811124C06AE570E068197109072E000C7D
:10221000880B990B0E94AF1625E33AEF4EE85CE37A
:102220000E9405180E947218A30192010E940518CD
:10223000262E7B838C839D8385E692E00E94860513
:10224000622D7B818C819D810E94640695013327DC
:1022500038872F83B90189E694E00E94980360E9EA
:1022600071E080E090E00E94FB020E9470044B014C
:102270005C0189E694E00E942E038983412C512C55
:10228000320189E694E00E942E03883891050CF013
:10229000A7C389E694E00E942E030E941D0B20E054
:1022A00030E040EE50E40E94001887FD5DC383EEED
:1022B00091E00E94860589E694E00E942E030E9428
:1022C00087068AEF91E00E947A0589818A55990BE9
:1022D000BC01072E000C880B990B0E94AF1625E35A
:1022E0003AEF4EE85CE30E9405180E947218A501BF
:1022F00094010E9405184B015C0181E992E00E9463
:102300008605C501B4010E94640689E694E00E9436
:102310002E038983282F2A55330BB901072E000C71
:10232000880B990B0E94AF1625E33AEF4EE85CE369
:102330000E9405180E947218A70196010E940518B4
:10234000A50194010E948E152B013C0189E694E0C1
:102350000E942E038C39910554F020E030E040E8D3
:1023600050E4C301B2010E94FB1587FF2AC089E631
:1023700094E00E942E030E941D0B20E030E040EE0E
:1023800050E40E94FB1587FFAEC289818A55990BE4
:10239000BC01072E000C880B990B0E94AF1625E399
:1023A0003AEF4EE85CE30E9405180E947218A701FC
:1023B00096010E940518A50194010E948E152B011B
:1023C0003C01A301920169857A858B859C850E94D9
:1023D0008F1569837A838C01A5019401622D7B811D
:1023E0008C819D810E948F15362E972E8D879E871A
:1023F00031E03E8320E030E040E850E4C301B20128
:102400000E94001887FD1E826F81788589E694E01E
:102410000E94980322E7F22E82E193E00E94860553
:10242000632D792D8D859E850E94640685E293E05B
:102430000E94860569817A81C8010E94640685E34D
:1024400093E00E9486052E81822F90E00E94710603
:1024500081E593E00E9486056F2D86EC93E00E9453
:102460003B0188E693E00E947A050E9411053981BC
:1024700039878A818A870B871C8720E030E0232BED
:1024800009F4C3CB0E940501882309F4BECB0E9446
:102490000000BBCBBB2009F4D7C080910401909110
:1024A00005010397ECF46AE077ED83E29CE30E9478
:1024B000D404809104019091050103970CF07DCC28
:1024C0006AE077ED83E29CE30E94AC08809104010E
:1024D0009091050101969093050180930401E9CF45
:1024E000012E000C220B330BA90198012A54324013
:1024F00041095109AFEFB3E00E944A1525EB31E0E5
:1025000040E050E00E942B152901890134E6E32EBA
:10251000F12CB80183E00E946402B80185E00E94BA
:10252000640261E082E00E94FA0160E084E00E94BF
:10253000FA0161E087E00E94FA0160E088E00E9411
:10254000FA0161E070E080E090E00E94FB0231E07F
:10255000E31AF108F1F60E94BE04BC01990F880B42
:10256000990B0E94AF1620E030E04AE754E40E9445
:1025700005169B01AC0169E27CE58FE89DE30E94B2
:1025800005166B017C01B201550C880B990B0E945A
:10259000AF1620E030EC4FE754E40E9405169B0193
:1025A000AC01C701B6010E9405186B017C01C09205
:1025B000BA03D092BB03E092BC03F092BD036091DA
:1025C000B8037091B903072E000C880B990B0E9479
:1025D000AF1625E33AEF4EE85CE30E9405182B01A5
:1025E0003C010E9400169B01AC01C701B6010E948C
:1025F00005189B01AC016091B4037091B503809103
:10260000B6039091B7030E948E156093B403709344
:10261000B5038093B6039093B703C301B2010E9440
:1026200072189B01AC01C701B6010E9405189B01FD
:10263000AC016091B0037091B1038091B2039091AD
:10264000B3030E948E1573CCAA2081F197010F2C41
:10265000000C440B550B235B314041095109ACE997
:10266000B1E00E944A152DE43EEF4FEF5FEF0E946C
:102670002B1529013A0183E6480E82E0581E611CA1
:10268000711C20E931E0D7010E94DA1823EB31E018
:1026900040E050E00E942B15DA01C90181599F4F9B
:1026A000AF4FBF4FB2010E94C40A71CC882009F419
:1026B0006ECC6701FF0CEE08FF08A70196012F5FA3
:1026C000334041095109A0E9B1E00E944A152CE4C8
:1026D0003EEF4FEF5FEF0E942B1529013A019FE675
:1026E000490E511C611C711CA70196012B543240EC
:1026F00041095109ACE9B1E00E944A1524EB31E0EF
:1027000040E050E00E942B15DA01C9018D599D4F20
:10271000AF4FBF4FC7CF81112CC08BE00E94A604E2
:10272000882339F06DEC7CEC8CEC9DE30E94AC08C6
:102730002ECC8DE00E94A604882339F06DEC7CEC51
:102740008CEC9DE30E94B80922CC8CE00E94A60488
:102750004FEF811107C083E10E94A604882309F48A
:1027600016CC41E060E070E080E791E40E94480808
:102770000ECC60E070E0CB0124CB20E030E0A9017A
:10278000C701B6010E94001818160CF039CC84ED70
:1027900091E00E9486056091C2037091C30380910D
:1027A000C4039091C5030E9464066091C2037091B6
:1027B000C3038091C4039091C5034FEF1FCC89E6FA
:1027C00094E00E942E03499709F4F5CC0E9470040E
:1027D0006B017C0189E694E00E942E038E836AE5FA
:1027E00070E0681B7109072E000C880B990B0E9482
:1027F000AF1625E33AEF4EE85CE30E9405180E940D
:1028000072189B01AC01C701B6010E940518232D67
:10281000392D4D855E850E948E1569837A838C01E2
:1028200089E694E00E942E03BC016150710989E69B
:1028300094E00E94980364E170E080E090E00E94E0
:10284000FB0274CC89E694E00E942E038D97E9F197
:102850000E9470042B013C0189E694E00E942E0343
:10286000882E6AE570E0681B7109072E000C880B42
:10287000990B0E94AF1625E33AEF4EE85CE30E9405
:1028800005180E9472189B01AC01C301B2010E949D
:102890000518362E972E8D879E8789E694E00E9434
:1028A0002E03BC016150710989E694E00E949803EF
:1028B00064E170E080E090E00E94FB02232C9B82A8
:1028C0009D859C832E852D83B9CB232C9B823D85B2
:1028D0003C838E858D8319861A861B861C86C12CA7
:1028E000D12C760174CC89E694E00E942E038B39BA
:1028F000910509F466CD0E9470046B017C0189E6A4
:1029000094E00E942E038983282F2A55330BB901A6
:10291000072E000C880B990B0E94AF1625E33AEFA7
:102920004EE85CE30E9405180E9472189B01AC01FE
:10293000C701B6010E940518A50194010E948E15D9
:102940002B013C0189E694E00E942E03BC016F5FDD
:102950007F4F89E694E00E94980364E170E080E094
:1029600090E00E94FB02F2CC89E694E00E942E03E4
:1029700087389105A9F10E9470044B015C0189E63A
:1029800094E00E942E038983282F2A55330BB90126
:10299000072E000C880B990B0E94AF1625E33AEF27
:1029A0004EE85CE30E9405180E9472189B01AC017E
:1029B000C501B4010E9405182B013C0189E694E091
:1029C0000E942E03BC016F5F7F4F89E694E00E9456
:1029D000980364E170E080E090E00E94FB0251CC3B
:1029E000A3019201622D7B818C819D810E948F15B4
:1029F000362E972E8D879E8787EB92E00E94860564
:102A0000C301B2010E9464068EEE92E00E94860528
:102A1000632D792D8D859E850E9464066F81788552
:102A200089E694E00E94980360E971E080E090E01C
:102A30000E94FB02398539838A858A830B851C8530
:102A40009EE6F92EE9CC8CE6F82E91E09E83E4CC4C
:102A5000D11083C962CE052E97FB1EF400940E940C
:102A6000421557FD07D00E945D1507FC03D04EF4B8
:102A70000C94421550954095309521953F4F4F4FFE
:102A80005F4F089590958095709561957F4F8F4F1A
:102A90009F4F08950E947F15A59F900DB49F900DA4
:102AA000A49F800D911D11240895B7FF0C944A1521
:102AB0000E944A15821B930B0895A1E21A2EAA1BAD
:102AC000BB1BFD010DC0AA1FBB1FEE1FFF1FA217DE
:102AD000B307E407F50720F0A21BB30BE40BF50BDB
:102AE000661F771F881F991F1A9469F76095709564
:102AF000809590959B01AC01BD01CF010895A29FE7
:102B0000B001B39FC001A39F700D811D1124911DC1
:102B1000B29F700D811D1124911D08955058BB273F
:102B2000AA270E94A6150C94B2170E94791738F0B4
:102B30000E94801720F039F49F3F19F426F40C947A
:102B400076170EF4E095E7FB0C946217E92F0E94CC
:102B5000D71758F3BA17620773078407950720F051
:102B600079F4A6F50C94F9170EF4E0950B2EBA2F14
:102B7000A02D0B01B90190010C01CA01A001112483
:102B8000FF27591B99F0593F50F4503E68F11A162F
:102B9000F040A22F232F342F4427585FF3CF4695C0
:102BA00037952795A795F0405395C9F77EF41F16E2
:102BB000BA0B620B730B840BBAF09150A1F0FF0FAC
:102BC000BB1F661F771F881FC2F70EC0BA0F621F98
:102BD000731F841F48F4879577956795B795F79588
:102BE0009E3F08F0B0CF9395880F08F09927EE0F1D
:102BF0009795879508950E943E1708F481E00895FF
:102C00000E948917E3950C94C3170E9419160C941F
:102C1000B2170E94801758F00E94791740F029F4EB
:102C20005F3F29F00C94621751110C94FA170C9421
:102C300076170E94D71768F39923B1F3552391F3C0
:102C4000951B550BBB27AA2762177307840738F01B
:102C50009F5F5F4F220F331F441FAA1FA9F335D078
:102C60000E2E3AF0E0E832D091505040E695001C2C
:102C7000CAF72BD0FE2F29D0660F771F881FBB1FE6
:102C8000261737074807AB07B0E809F0BB0B802DC4
:102C9000BF01FF2793585F4F3AF09E3F510578F0F0
:102CA0000C9462170C94FA175F3FE4F3983ED4F348
:102CB000869577956795B795F7959F5FC9F7880FC4
:102CC000911D9695879597F90895E1E0660F771F16
:102CD000881FBB1F621773078407BA0720F0621BA7
:102CE000730B840BBA0BEE1F88F7E09508950E94D2
:102CF0007E166894B1110C94FA1708950E94DF179C
:102D000088F09F5798F0B92F9927B751B0F0E1F0AC
:102D1000660F771F881F991F1AF0BA95C9F714C05C
:102D2000B13091F00E94F917B1E008950C94F917B1
:102D3000672F782F8827B85F39F0B93FCCF3869595
:102D400077956795B395D9F73EF4909580957095F2
:102D500061957F4F8F4F9F4F0895E89409C097FB6F
:102D60003EF490958095709561957F4F8F4F9F4F62
:102D70009923A9F0F92F96E9BB279395F6958795A6
:102D800077956795B795F111F8CFFAF4BB0F11F469
:102D900060FF1BC06F5F7F4F8F4F9F4F16C0882310
:102DA00011F096E911C0772321F09EE8872F762F46
:102DB00005C0662371F096E8862F70E060E02AF087
:102DC0009A95660F771F881FDAF7880F9695879573
:102DD00097F908950E94791720F019F00E94801742
:102DE00050F40C9476170C94FA17E92F0E94D71719
:102DF00088F35523B1F3E7FB621773078407950740
:102E0000A8F189F3E92FFF2788232AF03197660F6D
:102E1000771F881FDAF7952F5527442332F09150FA
:102E20005040220F331F441FD2F7BB27E91BF50B7D
:102E3000621B730B840BB109B1F222F4620F731F92
:102E4000841FB11D31972AF0660F771F881FBB1FA3
:102E5000EFCF9150504062F041F0882332F0660F7E
:102E6000771F881F91505040C1F793950C946817B5
:102E70008695779567959F5FD9F7F7CF990F0008EB
:102E8000550FAA0BE0E8FEEF16161706E807F9073C
:102E9000C0F012161306E407F50798F0621B730BD7
:102EA000840B950B39F40A2661F0232B242B252B58
:102EB00021F408950A2609F4A140A6958FEF811DFB
:102EC000811D089597F99F6780E870E060E008959C
:102ED0009F3F31F0915020F4879577956795B7958E
:102EE000880F911D9695879597F908959FEF80EC2F
:102EF000089500240A941616170618060906089560
:102F000000240A94121613061406050608950C945C
:102F100076170E94DF17D8F3E894E0E0BB279F57AD
:102F2000F0F02AED3FE049EC06C0EE0FBB0F661F44
:102F3000771F881F28F0B23A62077307840728F0CA
:102F4000B25A620B730B840BE3959A9572F7803833
:102F500030F49A95BB0F661F771F881FD2F79048F1
:102F60000C946A17092E0394000C11F4882352F074
:102F7000BB0F40F4BF2B11F460FF04C06F5F7F4FA5
:102F80008F4F9F4F0895EF93E0FF07C0A2EA2AED0D
:102F90003FE049EC5FEB0E94A6150E94B2170F902C
:102FA000039401FC9058E8E6F0E00C947F1857FD7C
:102FB0009058440F551F59F05F3F71F04795880FA7
:102FC00097FB991F61F09F3F79F08795089512163E
:102FD00013061406551FF2CF4695F1DF08C01616EA
:102FE00017061806991FF1CF86957105610508949B
:102FF0000895E894BB2766277727CB0197F90895B2
:103000000E943E1708F48FEF08950E9418180C9440
:10301000B2170E94791738F00E94801720F095238C
:1030200011F00C9462170C94761711240C94FA1773
:103030000E94D71770F3959FC1F3950F50E0551F6D
:10304000629FF001729FBB27F00DB11D639FAA27FD
:10305000F00DB11DAA1F649F6627B00DA11D661F4C
:10306000829F2227B00DA11D621F739FB00DA11D6D
:10307000621F839FA00D611D221F749F3327A00D27
:10308000611D231F849F600D211D822F762F6A2FC3
:1030900011249F5750409AF0F1F088234AF0EE0F28
:1030A000FF1FBB1F661F771F881F91505040A9F755
:1030B0009E3F510580F00C9462170C94FA175F3F05
:1030C000E4F3983ED4F3869577956795B795F79591
:1030D000E7959F5FC1F7FE2B880F911D9695879509
:1030E00097F908959F930E9489170F9007FCEE5F50
:1030F0000C94C3170E943E17880B990B08959F9359
:103100008F937F936F93FF93EF939B01AC010E948A
:103110000518EF91FF910E9493182F913F914F91C5
:103120005F910C940518DF93CF931F930F93FF9239
:10313000EF92DF927B018C01689406C0DA2EEF01DA
:103140000E941818FE01E894A591259135914591AA
:103150005591A6F3EF010E94A615FE019701A80163
:10316000DA9469F7DF90EF90FF900F911F91CF9164
:10317000DF910895991B79E004C0991F961708F014
:10318000961B881F7A95C9F78095089597FB072E9F
:1031900016F4009407D077FD09D00E94E11807FCCF
:1031A00005D03EF4909581959F4F08957095619557
:1031B0007F4F08950E947F15B7FF0895821B930BE0
:1031C0000895AA1BBB1B51E107C0AA1FBB1FA6176E
:1031D000B70710F0A61BB70B881F991F5A95A9F7C0
:1031E00080959095BC01CD010895EE0FFF1F0590CD
:0A31F000F491E02D0994F894FFCF4C
:1031FA000000004103000800030003000000000073
:10320A003B019B00C8008801F900D700EB000D0ABA
:10321A00006E616E00696E66006F766600616E67A9
:10322A006C6520697320696E6372656D656E74657D
:10323A006420746F2000616E676C65206973206476
:10324A00656372656D656E74656420746F200042F3
:10325A006174746572792070657263656E74206931
:10326A007320002069742077696C6C2074616B6527
:10327A002000207365636F6E647320746F20747509
:10328A00726E20002064656772656520007920638C
:10329A006F6F7264696E61746520697320007820AB
:1032AA00636F6F7264696E6174652069732000636D
:1032BA006F6F7264696E61746520616E676C6520F8
:1032CA0069732000426F647920616E676C652069BA
:1032DA0073200066696E616C6C7920667265652080
:1032EA00737061636520617420002064656772658C
:1032FA00657320006F62737461636C65207769641B
:10330A007468206865726520696E206C6566742031
:10331A006672656520737061636520697320006F4A
:10332A0062737461636C6520776964746820686588
:10333A0072652061742074686520656E64206F660A
:10334A00206C656674207768696C65206C6F6F7095
:10335A0020697320006F62737461636C65207769FA
:10336A00647468206865726520746F6F2061667482
:10337A006572206C656674206C6F6F7020697320AB
:10338A00006F62737461636C652077696474682086
:10339A006865726520696E207269676874206C6F4F
:1033AA006F7020697320006F62737461636C6520AB
:1033BA0077696474682061667465722072696768E7
:1033CA00742073696465207768696C65206C6F6F17
:1033DA00702066696E616C6C792069732000746F65
:1033EA0074616C206F62737461636C6520776964C1
:1033FA0074682061742074686520656E642069733E
:10340A0020006F62737461636C6520776964746805
:10341A00206973200053706163652077696474685A
:10342A002069732000537061636520697320617697
:10343A0061696C61626C652072657475726E732065
:10344A0000537061636520697320617661696C61FC
:10345A00626C652061742000207369646520000035
:00000001FF
